:020000040800F2
:100000000000022031130008051100080D1100083E
:10001000151100081D11000825110008000000003E
:10002000000000000000000000000000016A00085D
:100030002D11000800000000516C0008494500081F
:100040008113000881130008811300088113000840
:100050008113000881130008811300088113000830
:100060008113000881130008811300088113000820
:100070008113000881130008811300088113000810
:10008000811300088113000881130008000000009C
:1000900000000000000000000000000081130008C4
:1000A000811300083D110008811300088113000826
:1000B00081130008811300088113000881130008D0
:1000C00081130008811300088113000881130008C0
:1000D000811300085111000881130008000000007E
:1000E000811300088113000881130008000000003C
:1000F0000000000000000000000000008113000864
:10010000000000008113000881130008811300081B
:1001100000000000000000000000000000000000DF
:10012000811300088113000881130008811300085F
:100130008113000800000000000000000000000023
:100140000000000000000000000000008113000813
:10015000811300088113000881130008811300082F
:100160008113000881130008000000000000000057
:10017000000000000000000000000000000000007F
:1001800000000000811300080000000000000000D3
:0801900081130008811300082F
:1001A00010B5054C237833B9044B13B10448AFF3B1
:1001B00000800123237010BD6000002000000000BB
:1001C000D87B000808B5034B1BB103490348AFF3C4
:1001D000008008BD0000000064000020D87B0008FB
:1001E000034613F8012B002AFBD1181A0138704777
:1001F00001F0FF01102A2BDB10F0070F08D010F8D8
:10020000013B013A8B422DD010F0070F42B3F6D1DB
:10021000F0B441EA012141EA014122F007047FF0F4
:1002200000070023F0E80256083C85EA010586EA4B
:10023000010685FA47F5A3FA87F586FA47F6A5FA87
:1002400087F68EB9EED1F0BC01F0FF0102F0070293
:1002500032B110F8013B013A83EA010313B1F8D13E
:100260000020704701387047002D06BF354603381F
:10027000073815F0010F07D1013015F4807F02BF58
:10028000013015F4C03F0130F0BC0138704700BFA9
:1002900053B94AB9002908BF00281CBF4FF0FF31ED
:1002A0004FF0FF3000F06AB9ADF1080C6DE904CEF3
:1002B00000F006F8DDF804E0DDE9022304B0704741
:1002C0002DE9F047089D0C46002B4ED194468C45F5
:1002D0008646B2FA82F262D94AB1C2F12003914055
:1002E00020FA03F30CFA02FC194300FA02FE4FEA6B
:1002F0001C471FFA8CF6B1FBF7F44FEA1E4307FBCD
:10030000141143EA014304FB06F199420AD91CEB9C
:10031000030304F1FF3080F01281994240F20F8113
:10032000023C6344591A1FFA8EF3B1FBF7F007FB46
:10033000101143EA014300FB06F69E420AD91CEB6A
:10034000030300F1FF3180F0FC809E4240F2F9800F
:10035000634402389B1B40EA044000211DB1D34096
:100360000022C5E90032BDE8F0878B4205D90DB106
:10037000C5E9000100210846F5E7B3FA83F1002939
:1003800046D1A34202D39042C0F0F080861A64EBBB
:1003900003030120002DE6D0C5E90063E3E7002A4E
:1003A00040F09080A1EB0C044FEA1C481FFA8CF738
:1003B0000121B4FBF8F64FEA1E4308FB164443EA5A
:1003C000044307FB06F0984208D91CEB030306F12F
:1003D000FF3402D2984200F2CD8026461C1A1FFA42
:1003E0008EF3B4FBF8F008FB104443EA044300FB2F
:1003F00007F79F4208D91CEB030300F1FF3402D238
:100400009F4200F2B0802046DB1B40EA0640A5E791
:10041000C1F120068B4022FA06F71F4320FA06FCA2
:1004200004FA01F343EA0C03F44000FA01F8380C33
:100430004FEA1349B4FBF0FE1FFA87FC00FB1E4491
:1004400049EA04440EFB0CF9A14502FA01F20AD96B
:100450003C190EF1FF3A80F08480A14540F2818082
:10046000AEF1020E3C44A4EB09041FFA83F9B4FB7D
:10047000F0F300FB134449EA044403FB0CFCA445DD
:1004800007D93C1903F1FF3067D2A44565D9023B77
:100490003C4443EA0E40A0FB0293A4EB0C049C42B4
:1004A000CE469C4651D34ED055B1B8EB0E0364EB0B
:1004B0000C0404FA06F6CB401E43CC40C5E90064A8
:1004C000002150E7C2F1200320FA03F10CFA02FCEC
:1004D00024FA03F394400C434FEA1C4800FA02FE4E
:1004E0001FFA8CF7B3FBF8F008FB1031230C43EA3A
:1004F000014300FB07F1994208D91CEB030300F10B
:10050000FF362CD299422AD9023863445B1AA4B22E
:10051000B3FBF8F108FB113344EA034401FB07F392
:10052000A34208D91CEB040401F1FF3613D2A34205
:1005300011D902396444E41A41EA004139E704461A
:10054000F0E6084606E7C845AED2B9EB020E63EB0B
:10055000070C0138A8E73146EDE7034699E7304636
:10056000D4E7D6467FE7634402384DE70646234684
:1005700008460FE7023E634430E700BF704700BF04
:1005800080B485B000AF78600B467B804FF6FF7378
:10059000FB810023BB8122E0BB897A6813441B786E
:1005A0001A46FB895340FB810023FB7211E0FB8953
:1005B00003F00103002B06D0FB895B089AB20D4BB8
:1005C0005340FB8102E0FB895B08FB81FB7A01332E
:1005D000FB72FB7A072BEAD9BB890133BB81BA894D
:1005E0007B889A42D8D3FB8918461437BD465DF8FC
:1005F000047B704701A0FFFF80B584B000AF786036
:100600000B467B8013467B707B8819467868FFF722
:10061000B7FF0346FB817B78002B06D0FB89002BBC
:100620000CBF01230023DBB210E07B887A681344FF
:10063000FA89D2B21A70FB891B0A99B27B880133FE
:100640007A681344CAB21A707B880233184610378E
:10065000BD4680BD80B483B000AF78607B680E4A31
:100660001A617B6820229A827B680B4A1A617B6838
:1006700040229A807B68084A1A617B6880229A81AE
:100680007B68054A9A617B6810229A8300BF0C3709
:10069000BD465DF8047B70470000024080B582B023
:1006A00000AF786039607B68002B02D03B68002B7C
:1006B00002D14FF0FF3313E07B680B4A1A603B68AE
:1006C0009A697B685A603B689A8B7B681A817B6861
:1006D00058687B681B890122194601F0B1F9002393
:1006E00018460837BD4680BDB800002080B584B0EC
:1006F00000AF78600623FB737B6858687B681B89B2
:100700000022194601F09CF97B68186807F10F0177
:100710004FF0FF33012201F0DAFE7B6858687B68F6
:100720001B890122194601F08BF900BF1037BD4625
:1007300080BD80B584B000AF78600423FB737B6814
:1007400058687B681B890022194601F079F97B689B
:10075000186807F10F014FF0FF33012201F0B7FED7
:100760007B6858687B681B890122194601F068F98B
:1007700000BF1037BD4680BD80B586B000AFF860C1
:100780007A601A460B467B8113463B8103233B75F7
:100790007B891B0A9BB2DBB27B757B89DBB2BB75A5
:1007A000FB685868FB681B890022194601F048F96C
:1007B000FB68186807F114014FF0FF33032201F0C2
:1007C00086FEFB6818683A894FF0FF33796801F0BC
:1007D000C2FFFB685868FB681B890122194601F0BB
:1007E0002FF900BF1837BD4680BD80B586B000AF79
:1007F000F8607A601A460B467B8113463B810223E0
:100800003B757B891B0A9BB2DBB27B757B89DBB2B4
:10081000BB75F868FFF76AFFFB685868FB681B89BF
:100820000022194601F00CF9FB68186807F1140161
:100830004FF0FF33032201F04AFEFB6818683A8943
:100840004FF0FF33796801F042FEFB685868FB689F
:100850001B890122194601F0F3F8F868FFF769FFD8
:1008600000BF1837BD4680BD80B584B000AF78604A
:100870004123FB604FF40051064801F0FAF8FB6891
:10088000DBB2184600F0DAFC4FF47A7004F06AFF2D
:1008900000BFEFE70008024080B5AAB000AF786063
:1008A000002387F8A7300023A7F8A4305E4A07F199
:1008B000140392E8030018600433198002330A0C11
:1008C0001A700023FB6007F1100300210A461A800A
:1008D0000A469A704FF40041544801F0CAF8544B4C
:1008E0001B6807F11B010222184604F00DFB0346AA
:1008F000012B11D197F9A730002B0DDB97F8A7300A
:100900005A1C87F8A720FA7EA8333B4403F88C2CA6
:10091000FB7E184600F092FC05F076F8C7F8A000C0
:10092000444B1B68D7F8A020D31AC7F89C3097F81F
:10093000A730002BCED0D7F89C30C82BCAD997F857
:10094000A73099B207F11C0301221846FFF754FEA5
:100950000346A7F8A430B7F8A430012B55D13B7F4C
:10096000022B26D0022B50DC002B02D0012B10D002
:1009700042E07B7F002B3AD101224FF400512B48FB
:1009800001F05EF8B7F8A43019462B4800F032FCAD
:100990002DE07B7F012B2CD100224FF40051234806
:1009A00001F04EF8B7F8A4301946244800F022FCB4
:1009B0001FE07B7F002B1ED1B7F8A43019462048DA
:1009C00000F018FC07F1140207234FF4A8711D482A
:1009D000FFF70BFF4FF47A7000F016FD07F10C02E1
:1009E00007234FF4A8711748FFF7C6FE03E000BFC6
:1009F0000BE000BF09E000BF07E00D4B1B6807F1EB
:100A00000B010022184604F07FFA094B1B681846B8
:100A100004F05CFB0346002BEFD1002387F8A730DE
:100A20000A2004F09FFE55E7707C00080008024091
:100A3000AC0000207C000020107C0008307C000806
:100A4000507C00088000002080B500AF00F09AFCC8
:100A500000F06AF800F060F900F004F900F0CCF85A
:100A600000F030F900F0C4FC03461946204800F0BD
:100A7000C1FB2048FFF7EEFD1E491F48FFF70EFEA1
:100A80001E4800F0B7FB03F079FD0022012164202D
:100A900004F03BF803461A4A1360194B1B68002BFD
:100AA00001D100F0BDF9174A0021174803F0B0FD4D
:100AB0000346164A1360164A0021164803F0A8FDA3
:100AC0000346154A1360154A0021154803F0A0FD9E
:100AD0000346144A1360134B1B68002B04D14520B6
:100AE00000F0ACFB00F09CF903F06CFD00BFFDE7EB
:100AF000787C00088C00002080000020987C000892
:100B0000AC000020C47C0008E90D0008A001002012
:100B1000E87C000869080008B00000200C7D00088F
:100B200099080008B400002080B594B000AF07F128
:100B3000200330220021184606F078FB07F10C0351
:100B400000221A605A609A60DA601A610023BB6062
:100B5000274B1B6C264A43F080531364244B1B6CB9
:100B600003F08053BB60BB6800237B60214B1B6894
:100B7000204A43F4404313601E4B1B6803F4404378
:100B80007B607B6801233B624FF480337B620223EE
:100B9000BB634FF48003FB6319233B64C0237B6476
:100BA0000223BB640423FB6407F12003184600F012
:100BB0007BFF0346002B01D000F032F90F23FB60CE
:100BC00002233B6100237B614FF48053BB61002310
:100BD000FB6107F10C030321184601F0DDF9034620
:100BE000002B01D000F01CF900BF5037BD4680BD7E
:100BF000003802400070004080B500AF174B184A23
:100C00001A60164B4FF482725A60144B00229A609D
:100C1000124B0022DA60114B00221A610F4B0022A6
:100C20005A610E4B4FF400729A610C4B3022DA611C
:100C30000A4B00221A62094B00225A62074B00221B
:100C40009A62064B0A22DA62044801F0B7FB0346B7
:100C5000002B01D000F0E4F800BF80BDB8000020F8
:100C60000030014080B500AF134B144A1A60124B9C
:100C70004FF416425A60104B00229A600E4B00222D
:100C8000DA600D4B00221A610B4B0C225A610A4BA1
:100C900000229A61084B0022DA61074802F0D4FB77
:100CA0000346002B01D000F0BBF8012204490248A2
:100CB00002F0A5FC00BF80BD100100200010014023
:100CC000F001002080B500AF114B124A1A60104BA2
:100CD0004FF4E1325A600E4B00229A600C4B002216
:100CE000DA600B4B00221A61094B0C225A61084B47
:100CF00000229A61064B0022DA61054802F0A4FB4B
:100D00000346002B01D000F08BF800BF80BD00BF70
:100D1000580100200014014080B588B000AF07F1F1
:100D20000C0300221A605A609A60DA601A6100238C
:100D3000BB602A4B1B6B294A43F004031363274B08
:100D40001B6B03F00403BB60BB6800237B60234B79
:100D50001B6B224A43F080031363204B1B6B03F091
:100D600080037B607B6800233B601C4B1B6B1B4A32
:100D700043F001031363194B1B6B03F001033B604A
:100D80003B6800224FF42041154800F059FE002234
:100D90001021144800F054FE4FF42043FB6001235F
:100DA0003B6100237B610023BB6107F10C03194603
:100DB0000B4800F0C1FC1023FB6001233B610023C2
:100DC0007B610023BB6107F10C031946054800F065
:100DD000B3FC00BF2037BD4680BD00BF00380240D5
:100DE000000802400000024080B582B000AF786089
:100DF0004FF4FA7003F09FFCFAE7000080B582B070
:100E000000AF78607B681B68044A934201D100F010
:100E1000DBFA00BF0837BD4680BD00BF00000140BF
:100E200080B400AF72B600BF00BFFDE780B582B0EE
:100E300000AF00237B60124B5B6C114A43F480438C
:100E400053640F4B5B6C03F480437B607B6800232F
:100E50003B600B4B1B6C0A4A43F080531364084BF6
:100E60001B6C03F080533B603B6800220F216FF046
:100E7000010000F0A5FB00BF0837BD4680BD00BFE4
:100E80000038024080B58AB000AF786007F11403E3
:100E900000221A605A609A60DA601A617B681B68E7
:100EA000194A93422BD100233B61184B5B6C174AC4
:100EB00043F480535364154B5B6C03F480533B61E4
:100EC0003B690023FB60114B1B6B104A43F001038D
:100ED00013630E4B1B6B03F00103FB60FB68E02305
:100EE0007B610223BB610023FB6103233B6205237B
:100EF0007B6207F114031946054800F01DFC00BF92
:100F00002837BD4680BD00BF003001400038024098
:100F10000000024080B58CB000AF786007F11C0380
:100F200000221A605A609A60DA601A617B681B6856
:100F3000374A934235D10023BB61364B5B6C354A4F
:100F400043F010035364334B5B6C03F01003BB613D
:100F5000BB6900237B612F4B1B6B2E4A43F00103BF
:100F600013632C4B1B6B03F001037B617B694FF414
:100F7000C063FB6102233B6200237B620323BB62ED
:100F80000723FB6207F11C031946234800F0D4FB3A
:100F900000220521252000F013FB252000F02CFB6A
:100FA00031E07B681B681D4A93422CD100233B61D2
:100FB000184B5B6C174A43F020035364154B5B6C72
:100FC00003F020033B613B690023FB60114B1B6B6B
:100FD000104A43F0010313630E4B1B6B03F0010334
:100FE000FB60FB684FF4C053FB6102233B620023AC
:100FF0007B620323BB620823FB6207F11C031946D3
:10100000054800F099FB00BF3037BD4680BD00BFEA
:10101000001001400038024000000240001401406E
:1010200080B58CB000AF78600023BB6200237B6288
:101030000023BB602E4B5B6C2D4A43F001035364CD
:101040002B4B5B6C03F00103BB60BB6807F10C0228
:1010500007F110031146184601F07EF901F068F916
:10106000B862BB6A234AA2FB03239B0C013B7B6251
:10107000214B224A1A60204B40F2E732DA601E4AC6
:101080007B6A53601C4B00221A611B4B00229A6042
:10109000194B00229A61184801F062FF034687F855
:1010A0002F3097F82F30002B1BD1134801F0B2FFDF
:1010B000034687F82F3097F82F30002B11D11920D5
:1010C00000F09AFA7B680F2B08D800227968192063
:1010D00000F076FA0A4A7B68136002E0012387F881
:1010E0002F3097F82F3018463037BD4680BD00BFEF
:1010F0000038024083DE1B43A401002000000140B1
:101100000400002080B400AF00BFFDE780B400AF52
:1011100000BFFDE780B400AF00BFFDE780B400AFC3
:1011200000BFFDE780B400AF00BFFDE780B400AFB3
:1011300000BFBD465DF8047B7047000080B500AF7E
:10114000024801F0C9FF00BF80BD00BFA40100201C
:1011500080B500AF024802F077FA00BF80BD00BF43
:101160001001002080B586B000AF7860144A154B9E
:10117000D31A7B617B693B61134B1B68002B02D147
:10118000114B124A1A60104B1A687B6813443A6973
:101190009A4207D206F0A8F803460C221A604FF0D4
:1011A000FF3309E0084B1B68FB60074B1A687B683C
:1011B0001344054A1360FB6818461837BD4680BDC6
:1011C0000000022000040000EC010020685A00200A
:1011D00080B400AF064BD3F88830054A43F470035F
:1011E000C2F8883000BFBD465DF8047B704700BF81
:1011F00000ED00E00FB480B58CB000AF07F13C0308
:101200007B6007F108007B68BA6B282106F000F8C4
:1012100007F108031846FEF7E3FF03469AB207F109
:1012200008016423044802F05FF900BF3037BD466F
:10123000BDE8804004B070475801002080B582B0FE
:1012400000AF0346FB71F91D4FF0FF330122034845
:1012500002F04AF900BF0837BD4680BD10010020EA
:1012600080B584B000AF78607B681B68284A9342E1
:1012700049D1284B1B78DBB21A46274B9B5CDBB26B
:10128000BB73244B1B78DBB201335A4203F07F035C
:1012900002F07F0258BF5342FB73204B1B78DBB236
:1012A000FA7B9A4203D01B4AFB7B137005E0194B73
:1012B00000221A70194B00221A700023BB60184BD1
:1012C000186807F1080207F10E01002303F07EFD04
:1012D00004F0AAFB0346134A13600E4B1B78DBB2E3
:1012E0001A460D4B1344012219460F4802F087F9A4
:1012F000BB68002B07D00D4B4FF080521A60BFF334
:101300004F8FBFF36F8F00BF1037BD4680BD00BF4A
:101310000010014070020020F00100207102002046
:10132000AC0000207C0000201001002004ED00E053
:10133000DFF834D0FFF74CFF0C480D490D4A00236D
:1013400002E0D458C4500433C4188C42F9D30A4A7A
:101350000A4C002301E013600432A242FBD305F0E3
:10136000C9FFFFF771FB704700000220000000205A
:10137000600000208C7D000860000020685A00207A
:10138000FEE7000080B500AF0E4B1B680D4A43F42A
:10139000007313600B4B1B680A4A43F480631360AD
:1013A000084B1B68074A43F480731360032000F066
:1013B000FCF80F20FFF734FEFFF738FD0023184636
:1013C00080BD00BF003C024080B400AF064B1B78DC
:1013D0001A46064B1B681344044A136000BFBD46FF
:1013E0005DF8047B704700BF0800002074020020F5
:1013F00080B400AF034B1B681846BD465DF8047B04
:10140000704700BF7402002080B584B000AF7860E0
:10141000FFF7EEFFB8607B68FB60FB68B3F1FF3F4E
:1014200005D00A4B1B781A46FB681344FB6000BFCB
:10143000FFF7DEFF0246BB68D31AFA689A42F7D874
:1014400000BF00BF1037BD4680BD00BF08000020B0
:1014500080B485B000AF78607B6803F00703FB6061
:101460000C4BDB68BB60BA684FF6FF031340BB60F0
:10147000FB681A02BB68134343F0BF6343F40033B5
:10148000BB60044ABB68D36000BF1437BD465DF83B
:10149000047B704700ED00E080B400AF044BDB68D4
:1014A0001B0A03F007031846BD465DF8047B70472E
:1014B00000ED00E080B483B000AF0346FB7197F904
:1014C0000730002B0BDBFB7903F01F02074997F96C
:1014D00007305B09012000FA02F241F8232000BF27
:1014E0000C37BD465DF8047B704700BF00E100E0AB
:1014F00080B483B000AF03463960FB7197F90730C1
:10150000002B0ADB3B68DAB20C4997F9073012016D
:10151000D2B20B4483F800230AE03B68DAB20849F0
:10152000FB7903F00F03043B1201D2B20B441A768D
:1015300000BF0C37BD465DF8047B704700E100E05A
:1015400000ED00E080B489B000AFF860B9607A6067
:10155000FB6803F00703FB61FB69C3F10703042B7E
:1015600028BF0423BB61FB690433062B02D9FB6946
:10157000033B00E000237B614FF0FF32BB6902FABE
:1015800003F3DA43BB681A407B699A404FF0FF319E
:101590007B6901FA03F3D9437B680B401343184678
:1015A0002437BD465DF8047B704780B582B000AF3C
:1015B00078607868FFF74CFF00BF0837BD4680BDF4
:1015C00080B586B000AF0346B9607A60FB73002334
:1015D0007B61FFF761FF78617A68B9687869FFF726
:1015E000B1FF024697F90F3011461846FFF780FF0A
:1015F00000BF1837BD4680BD80B582B000AF03463E
:10160000FB7197F907301846FFF754FF00BF083702
:10161000BD4680BD80B584B000AF78607B689B6DAF
:10162000FB60FFF7E5FEB8607B6893F83530DBB20E
:10163000022B08D07B6880225A657B68002283F8E1
:101640003420012352E07B681B681A687B681B68A2
:1016500022F016021A607B681B685A697B681B6857
:1016600022F080025A617B681B6C002B03D17B68DF
:101670009B6C002B07D07B681B681A687B681B6813
:1016800022F008021A607B681B681A687B681B6876
:1016900022F001021A6013E0FFF7AAFE0246BB68BF
:1016A000D31A052B0CD97B6820225A657B6803224C
:1016B00083F835207B68002283F83420032315E06B
:1016C0007B681B681B6803F00103002BE4D17B6877
:1016D000DB6D3F229A40FB689A607B68012283F8A9
:1016E00035207B68002283F8342000231846103709
:1016F000BD4680BD80B483B000AF78607B6893F84E
:101700003530DBB2022B04D07B6880225A6501237E
:101710000CE07B68052283F835207B681B681A681B
:101720007B681B6822F001021A60002318460C3700
:10173000BD465DF8047B704780B489B000AF786027
:10174000396000237B6100233B610023BB610023E0
:10175000FB6159E10122FB6902FA03F37B613B68FB
:101760001B687A6913403B613A697B699A4240F091
:1017700048813B685B6803F00303012B05D03B689D
:101780005B6803F00303022B30D17B689B68BB616D
:10179000FB695B00032202FA03F3DB43BA691340DF
:1017A000BB613B68DA68FB695B0002FA03F3BA6964
:1017B0001343BB617B68BA699A607B685B68BB61F5
:1017C0000122FB6902FA03F3DB43BA691340BB61F0
:1017D0003B685B681B0903F00102FB6902FA03F333
:1017E000BA691343BB617B68BA695A603B685B683E
:1017F00003F00303032B17D07B68DB68BB61FB6935
:101800005B00032202FA03F3DB43BA691340BB61B6
:101810003B689A68FB695B0002FA03F3BA691343F9
:10182000BB617B68BA69DA603B685B6803F00303FD
:10183000022B23D1FB69DA087B68083253F8223087
:10184000BB61FB6903F007039B000F2202FA03F35D
:10185000DB43BA691340BB613B681A69FB6903F05B
:1018600007039B0002FA03F3BA691343BB61FB69E8
:10187000DA087B680832B96943F822107B681B6874
:10188000BB61FB695B00032202FA03F3DB43BA6925
:101890001340BB613B685B6803F00302FB695B00BC
:1018A00002FA03F3BA691343BB617B68BA691A6031
:1018B0003B685B6803F44033002B00F0A2800023F8
:1018C000FB60574B5B6C564A43F480435364544B64
:1018D0005B6C03F48043FB60FB68524AFB699B0826
:1018E000023352F82330BB61FB6903F003039B0012
:1018F0000F2202FA03F3DB43BA691340BB617B6832
:10190000494A934219D07B68484A934213D07B6876
:10191000474A93420DD07B68464A934207D07B6882
:10192000454A934201D1042308E0072306E003233C
:1019300004E0022302E0012300E00023FA6902F040
:10194000030292009340BA691343BB613549FB69B6
:101950009B080233BA6941F82320384B9B68BB616E
:101960003B69DB43BA691340BB613B685B6803F4C6
:101970008013002B03D0BA693B691343BB612F4A24
:10198000BB6993602D4BDB68BB613B69DB43BA6984
:101990001340BB613B685B6803F40013002B03D06A
:1019A000BA693B691343BB61244ABB69D360234BCB
:1019B0005B68BB613B69DB43BA691340BB613B6851
:1019C0005B6803F40033002B03D0BA693B6913430F
:1019D000BB611A4ABB695360184B1B68BB613B690A
:1019E000DB43BA691340BB613B685B6803F4803337
:1019F000002B03D0BA693B691343BB610F4ABB6933
:101A00001360FB690133FB61FB690F2B7FF6A2AE0C
:101A100000BF00BF2437BD465DF8047B704700BFA0
:101A2000003802400038014000000240000402403B
:101A300000080240000C024000100240003C01403F
:101A400080B483B000AF78600B467B8013467B7018
:101A50007B78002B03D07A887B689A6103E07B88CF
:101A60001A047B689A6100BF0C37BD465DF8047BA1
:101A7000704780B485B000AF78600B467B807B6890
:101A80005B69FB607A88FB6813401A04FB68D943E2
:101A90007B880B401A437B689A6100BF1437BD46B0
:101AA0005DF8047B7047000080B586B000AF7860B9
:101AB0007B68002B01D1012367E27B681B6803F080
:101AC0000103002B75D0884B9B6803F00C03042B9B
:101AD0000CD0854B9B6803F00C03082B12D1824B72
:101AE0005B6803F48003B3F5800F0BD17E4B1B685A
:101AF00003F40033002B5BD07B685B68002B57D16D
:101B0000012342E27B685B68B3F5803F06D1764BE8
:101B10001B68754A43F4803313601DE07B685B6883
:101B2000B3F5A02F0CD1704B1B686F4A43F4802390
:101B300013606D4B1B686C4A43F4803313600BE0F9
:101B4000694B1B68684A23F480331360664B1B683B
:101B5000654A23F4802313607B685B68002B13D0F5
:101B6000FFF746FC386108E0FFF742FC02463B699C
:101B7000D31A642B01D9032307E25B4B1B6803F4E0
:101B80000033002BF0D014E0FFF732FC386108E09E
:101B9000FFF72EFC02463B69D31A642B01D90323BD
:101BA000F3E1514B1B6803F40033002BF0D100E04C
:101BB00000BF7B681B6803F00203002B63D04A4B15
:101BC0009B6803F00C03002B0BD0474B9B6803F082
:101BD0000C03082B1CD1444B5B6803F48003002BDF
:101BE00016D1414B1B6803F00203002B05D07B6824
:101BF000DB68012B01D00123C7E13B4B1B6823F0BD
:101C0000F8027B681B69DB00374913430B603AE03D
:101C10007B68DB68002B20D0344B01221A60FFF771
:101C2000E7FB386108E0FFF7E3FB02463B69D31AA4
:101C3000022B01D90323A8E12B4B1B6803F00203FD
:101C4000002BF0D0284B1B6823F0F8027B681B693F
:101C5000DB00254913430B6015E0244B00221A607A
:101C6000FFF7C6FB386108E0FFF7C2FB02463B699D
:101C7000D31A022B01D9032387E11B4B1B6803F006
:101C80000203002BF0D17B681B6803F00803002BD4
:101C900036D07B685B69002B16D0154B01221A6089
:101CA000FFF7A6FB386108E0FFF7A2FB02463B699D
:101CB000D31A022B01D9032367E10B4B5B6F03F0AF
:101CC0000203002BF0D01BE0094B00221A60FFF743
:101CD0008FFB38610EE0FFF78BFB02463B69D31A9E
:101CE000022B07D9032350E100380240000047428D
:101CF000800E4742884B5B6F03F00203002BEAD152
:101D00007B681B6803F00403002B00F0978000231E
:101D1000FB75814B1B6C03F08053002B0FD100230C
:101D2000BB607D4B1B6C7C4A43F0805313647A4B41
:101D30001B6C03F08053BB60BB680123FB75774BC2
:101D40001B6803F48073002B18D1744B1B68734A13
:101D500043F480731360FFF74BFB386108E0FFF733
:101D600047FB02463B69D31A022B01D903230CE13E
:101D70006A4B1B6803F48073002BF0D07B689B6870
:101D8000012B06D1644B1B6F634A43F001031367B9
:101D90001CE07B689B68052B0CD15F4B1B6F5E4A78
:101DA00043F0040313675C4B1B6F5B4A43F0010372
:101DB00013670BE0584B1B6F574A23F0010313675F
:101DC000554B1B6F544A23F0040313677B689B68D1
:101DD000002B15D0FFF70CFB38610AE0FFF708FB7A
:101DE00002463B69D31A41F28832934201D9032358
:101DF000CBE0494B1B6F03F00203002BEED014E045
:101E0000FFF7F6FA38610AE0FFF7F2FA02463B699B
:101E1000D31A41F28832934201D90323B5E03E4BF5
:101E20001B6F03F00203002BEED1FB7D012B05D1CC
:101E3000394B1B6C384A23F0805313647B689B69D1
:101E4000002B00F0A180344B9B6803F00C03082B9F
:101E50005CD07B689B69022B41D1314B00221A6018
:101E6000FFF7C6FA386108E0FFF7C2FA02463B699D
:101E7000D31A022B01D9032387E0274B1B6803F0F9
:101E80000073002BF0D17B68DA697B681B6A1A4308
:101E90007B685B6A9B011A437B689B6A5B08013B1A
:101EA0001B041A437B68DB6A1B061B4913434B6008
:101EB0001B4B01221A60FFF79BFA386108E0FFF71D
:101EC00097FA02463B69D31A022B01D903235CE03F
:101ED000114B1B6803F00073002BF0D054E0104B43
:101EE00000221A60FFF784FA386108E0FFF780FAF1
:101EF00002463B69D31A022B01D9032345E0064B66
:101F00001B6803F00073002BF0D13DE07B689B69F8
:101F1000012B07D1012338E0003802400070004057
:101F2000600047421B4B5B68FB607B689B69012B31
:101F300028D0FB6803F480027B68DB699A4221D1D8
:101F4000FB6803F03F027B681B6A9A421AD1FA6869
:101F500047F6C07313407A68526A9201934211D1D6
:101F6000FB6803F440327B689B6A5B08013B1B04FF
:101F70009A4207D1FB6803F070627B68DB6A1B063C
:101F80009A4201D0012300E0002318461837BD46CD
:101F900080BD00BF0038024080B584B000AF7860DB
:101FA00039607B68002B01D10123CCE0684B1B68B2
:101FB00003F007033A689A420CD9654B3A68D2B2EB
:101FC0001A70634B1B6803F007033A689A4201D00A
:101FD0000123B8E07B681B6803F00203002B20D0CC
:101FE0007B681B6803F00403002B05D0594B9B68EA
:101FF000584A43F4E05393607B681B6803F008037E
:10200000002B05D0534B9B68524A43F460439360C6
:10201000504B9B6823F0F0027B689B684D4913434B
:102020008B607B681B6803F00103002B44D07B6846
:102030005B68012B07D1474B1B6803F40033002B6F
:1020400019D101237FE07B685B68022B03D07B689A
:102050005B68032B07D13F4B1B6803F00073002B19
:1020600009D101236FE03B4B1B6803F00203002BF7
:1020700001D1012367E0374B9B6823F003027B68A3
:102080005B68344913438B60FFF7B2F9F8600AE0EC
:10209000FFF7AEF90246FB68D31A41F28832934249
:1020A00001D903234FE02B4B9B6803F00C027B68A4
:1020B0005B689B009A42EBD1254B1B6803F007033A
:1020C0003A689A420CD2224B3A68D2B21A70204B2C
:1020D0001B6803F007033A689A4201D0012332E0FB
:1020E0007B681B6803F00403002B08D0194B9B6826
:1020F00023F4E0527B68DB68164913438B607B68EE
:102100001B6803F00803002B09D0124B9B6823F4D3
:1021100060427B681B69DB000E4913438B6000F053
:1021200021F802460B4B9B681B0903F00F030A4979
:10213000CB5C22FA03F3094A1360094B1B6818466B
:10214000FEF76EFF002318461037BD4680BD00BF66
:10215000003C024000380240307D000800000020B2
:10216000040000202DE9B04F90B000AF00237B6346
:102170000023FB6300233B630023BB63594B9B6835
:1021800003F00C03082B0DD0082B00F2A180002BCC
:1021900002D0042B03D09BE0534BBB639BE0534B1B
:1021A000BB6398E04F4B5B6803F03F037B634D4B91
:1021B0005B6803F48003002B28D04A4B5B689B09C3
:1021C00000223B627A623B6AC3F308000021474B5E
:1021D00003FB01F2002300FB03F31344434AA0FB7B
:1021E0000212FA620A46BA62FA6A1344FB627B6B15
:1021F0000022BB61FA61D7E90623D7E90A01FEF79D
:1022000047F802460B461346FB6353E0354B5B68C9
:102210009B0900223B617A613B69C3F3080A4FF0D6
:10222000000B52465B464FF000004FF00001590191
:1022300041EAD261500102460B46B2EB0A0863EB59
:102240000B094FF000024FF000034FEA891343EAF5
:1022500098634FEA8812B2EB080463EB09054FF06C
:1022600000024FF00003EB0043EA5473E20014460F
:102270001D4614EB0A033B6045EB0B037B604FF0FC
:1022800000024FF00003D7E9004529468B022146A2
:1022900043EA915321468A02104619467B6B00227D
:1022A000BB60FA60D7E90223FDF7F2FF02460B4656
:1022B0001346FB630B4B5B681B0C03F003030133FA
:1022C0005B003B63FA6B3B6BB2FBF3F3BB6302E077
:1022D000054BBB6300BFBB6B18464037BD46BDE82E
:1022E000B08F00BF003802400024F40040787D0128
:1022F00080B400AF034B1B681846BD465DF8047BF5
:10230000704700BF0000002080B500AFFFF7F0FF6E
:102310000246054B9B689B0A03F007030349CB5C0D
:1023200022FA03F3184680BD00380240407D0008C1
:1023300080B500AFFFF7DCFF0246054B9B685B0BE7
:1023400003F007030349CB5C22FA03F3184680BD70
:1023500000380240407D000880B483B000AF786050
:1023600039607B680F221A60124B9B6803F00302EE
:102370007B685A600F4B9B6803F0F0027B689A60A1
:102380000C4B9B6803F4E0527B68DA60094B9B6856
:10239000DB0803F4E0527B681A61074B1B6803F00B
:1023A00007023B681A6000BF0C37BD465DF8047B2E
:1023B000704700BF00380240003C024080B582B048
:1023C00000AF78607B68002B01D101237BE07B6844
:1023D0005B6A002B08D17B685B68B3F5827F09D00C
:1023E0007B680022DA6105E07B6800221A617B6865
:1023F00000225A617B6800229A627B6893F8513010
:10240000DBB2002B06D17B68002283F8502078686D
:10241000FEF738FD7B68022283F851207B681B6839
:102420001A687B681B6822F040021A607B685B6850
:1024300003F482727B689B6803F404431A437B684D
:10244000DB6803F400631A437B681B6903F0020333
:102450001A437B685B6903F001031A437B689B693D
:1024600003F400731A437B68DB6903F038031A43F3
:102470007B681B6A03F0800342EA03017B689B6A66
:1024800003F400527B681B680A431A607B689B69EF
:102490001B0C03F004017B685B6A03F010027B688D
:1024A0001B680A435A607B681B68DA697B681B6893
:1024B00022F40062DA617B6800225A657B6801229F
:1024C00083F85120002318460837BD4680BD80B5EB
:1024D00088B000AFF860B9603B601346FB80FEF740
:1024E00087FFF861FB887B83FB6893F85130DBB290
:1024F000012B01D002232AE1BB68002B02D0FB880C
:10250000002B01D1012322E1FB6893F85030012B0D
:1025100001D102231BE1FB68012283F85020FB68F4
:10252000032283F85120FB6800225A65FB68BA68D1
:102530001A63FB68FA889A86FB68FA88DA86FB6871
:1025400000229A63FB6800229A87FB680022DA87E0
:10255000FB6800225A64FB6800221A64FB689B68CF
:10256000B3F5004F0FD1FB681B681A68FB681B6846
:1025700022F040021A60FB681B681A68FB681B683F
:1025800042F480421A60FB681B681B6803F040033A
:10259000402B07D0FB681B681A68FB681B6842F079
:1025A00040021A60FB68DB68B3F5006F52D1FB682C
:1025B0005B68002B02D07B8B012B45D1FB681B6B2A
:1025C0001A88FB681B68DA60FB681B6B9A1CFB6847
:1025D0001A63FB68DB8E9BB2013B9AB2FB68DA861A
:1025E00032E0FB681B689B6803F00203022B12D1E8
:1025F000FB681B6B1A88FB681B68DA60FB681B6B47
:102600009A1CFB681A63FB68DB8E9BB2013B9AB293
:10261000FB68DA8618E0FEF7EBFE0246FB69D31A88
:102620003A689A4203D83B68B3F1FF3F02D13B6856
:10263000002B09D1FB68012283F85120FB6800229E
:1026400083F85020032382E0FB68DB8E9BB2002BD3
:10265000C7D153E0FB685B68002B02D07B8B012B5A
:1026600047D1FB681A6BFB681B680C3312781A7031
:10267000FB681B6B5A1CFB681A63FB68DB8E9BB202
:10268000013B9AB2FB68DA8633E0FB681B689B6803
:1026900003F00203022B13D1FB681A6BFB681B6863
:1026A0000C3312781A70FB681B6B5A1CFB681A6398
:1026B000FB68DB8E9BB2013B9AB2FB68DA8618E0BE
:1026C000FEF796FE0246FB69D31A3A689A4203D88F
:1026D0003B68B3F1FF3F02D13B68002B09D1FB6897
:1026E000012283F85120FB68002283F85020032345
:1026F0002DE0FB68DB8E9BB2002BC6D1FA693968EE
:10270000F86800F0D9FB0346002B02D0FB682022BA
:102710005A65FB689B68002B0AD100237B61FB682C
:102720001B68DB687B61FB681B689B687B617B695E
:10273000FB68012283F85120FB68002283F85020B7
:10274000FB685B6D002B01D0012300E000231846DD
:102750002037BD4680BD80B588B002AFF860B96053
:102760003B601346FB80FB6893F85130DBB2012BD2
:1027700001D0022304E1FB685B68B3F5827F12D1CC
:10278000FB689B68002B0ED1FB68042283F8512064
:10279000FA883B6800931346BA68B968F86800F095
:1027A000F3F80346ECE0FEF723FE7861BB68002BEC
:1027B00002D0FB88002B01D10123E1E0FB6893F8F4
:1027C0005030012B01D10223DAE0FB68012283F8AB
:1027D0005020FB68042283F85120FB6800225A65D0
:1027E000FB68BA689A63FB68FA889A87FB68FA887C
:1027F000DA87FB6800221A63FB6800229A86FB686E
:102800000022DA86FB6800221A64FB6800225A6400
:10281000FB689B68B3F5004F0FD1FB681B681A6813
:10282000FB681B6822F040021A60FB681B681A688C
:10283000FB681B6822F480421A60FB681B681B68F7
:1028400003F04003402B07D0FB681B681A68FB6845
:102850001B6842F040021A60FB68DB68002B70D1F5
:1028600035E0FB681B689B6803F00103012B15D161
:10287000FB681B6803F10C02FB689B6B1278D2B2F9
:102880001A70FB689B6B5A1CFB689A63FB68DB8FB2
:102890009BB2013B9AB2FB68DA8718E0FEF7A8FD0D
:1028A00002467B69D31A3A689A4203D83B68B3F16F
:1028B000FF3F02D13B68002B09D1FB68012283F85E
:1028C0005120FB68002283F85020032358E0FB6866
:1028D000DB8F9BB2002BC4D138E0FB681B689B6880
:1028E00003F00103012B13D1FB681B68DA68FB6856
:1028F0009B6B92B21A80FB689B6B9A1CFB689A6375
:10290000FB68DB8F9BB2013B9AB2FB68DA8718E069
:10291000FEF76EFD02467B69D31A3A689A4203D8E5
:102920003B68B3F1FF3F02D13B68002B09D1FB6844
:10293000012283F85120FB68002283F850200323F2
:102940001EE0FB68DB8F9BB2002BC6D17A69396829
:10295000F86800F04BFA0346002B02D0FB682022F7
:102960005A65FB68012283F85120FB68002283F836
:102970005020FB685B6D002B01D0012300E0002399
:1029800018461837BD4680BD80B58AB000AFF860E4
:10299000B9607A607B8001237B62FEF729FD386293
:1029A000FB6893F85130FB77FB685B68BB617B8801
:1029B000FB82FB7F012B0CD0BB69B3F5827F06D174
:1029C000FB689B68002B02D1FB7F042B01D0022304
:1029D0007FE1BB68002B05D07B68002B02D07B8891
:1029E000002B01D1012374E1FB6893F85030012BD7
:1029F00001D102236DE1FB68012283F85020FB68BE
:102A000093F85130DBB2042B03D0FB68052283F826
:102A10005120FB6800225A65FB687A689A63FB685C
:102A20007A88DA87FB687A889A87FB68BA681A63BB
:102A3000FB687A88DA86FB687A889A86FB680022C7
:102A40001A64FB6800225A64FB681B681B6803F069
:102A50004003402B07D0FB681B681A68FB681B68A3
:102A600042F040021A60FB68DB68B3F5006F7ED16C
:102A7000FB685B68002B02D0FB8A012B6CD1FB68E2
:102A80001B6B1A88FB681B68DA60FB681B6B9A1C5F
:102A9000FB681A63FB68DB8E9BB2013B9AB2FB6852
:102AA000DA8659E0FB681B689B6803F00203022B7F
:102AB0001BD1FB68DB8E9BB2002B16D07B6A012BEF
:102AC00013D1FB681B6B1A88FB681B68DA60FB6814
:102AD0001B6B9A1CFB681A63FB68DB8E9BB2013B85
:102AE0009AB2FB68DA8600237B62FB681B689B68EE
:102AF00003F00103012B19D1FB68DB8F9BB2002B84
:102B000014D0FB681B68DA68FB689B6B92B21A8072
:102B1000FB689B6B9A1CFB689A63FB68DB8F9BB21C
:102B2000013B9AB2FB68DA8701237B62FEF760FC07
:102B300002463B6AD31A3A6B9A420DD83B6BB3F10B
:102B4000FF3F09D0FB68012283F85120FB68002277
:102B500083F850200323BCE0FB68DB8E9BB2002B84
:102B6000A0D1FB68DB8F9BB2002B9BD182E0FB687E
:102B70005B68002B02D0FB8A012B71D1FB681A6BBA
:102B8000FB681B680C3312781A70FB681B6B5A1CAD
:102B9000FB681A63FB68DB8E9BB2013B9AB2FB6851
:102BA000DA865DE0FB681B689B6803F00203022B7A
:102BB0001CD1FB68DB8E9BB2002B17D07B6A012BEC
:102BC00014D1FB681A6BFB681B680C3312781A70FF
:102BD000FB681B6B5A1CFB681A63FB68DB8E9BB29D
:102BE000013B9AB2FB68DA8600237B62FB681B68B4
:102BF0009B6803F00103012B19D1FB68DB8F9BB2AB
:102C0000002B14D0FB681B68DA68FB689B6BD2B2A0
:102C10001A70FB689B6B5A1CFB689A63FB68DB8F1E
:102C20009BB2013B9AB2FB68DA8701237B62FEF715
:102C3000DFFB02463B6AD31A3A6B9A4203D83B6BDE
:102C4000B3F1FF3F02D13B6B002B09D1FB6801229E
:102C500083F85120FB68002283F85020032338E0DA
:102C6000FB68DB8E9BB2002B9CD1FB68DB8F9BB299
:102C7000002B97D13A6A396BF86800F01DF90346CA
:102C8000002B08D0FB6820225A65FB68002283F8DD
:102C9000502001231DE0FB689B68002B0AD1002314
:102CA0003B61FB681B68DB683B61FB681B689B68DA
:102CB0003B613B69FB68012283F85120FB680022DD
:102CC00083F85020FB685B6D002B01D0012300E0EE
:102CD000002318462837BD4680BD000080B588B067
:102CE00000AFF860B9603B601346FB71FEF780FBF4
:102CF0000246BB6A9B1A3A681344FB61FEF778FBF5
:102D0000B861394B1B685B011B0DFA6902FB03F3C9
:102D10007B6154E03B68B3F1FF3F50D0FEF768FBA6
:102D20000246BB69D31AFA699A4202D9FB69002BA1
:102D30003DD1FB681B685A68FB681B6822F0E00203
:102D40005A60FB685B68B3F5827F11D1FB689B68B2
:102D5000B3F5004F04D0FB689B68B3F5806F07D1D3
:102D6000FB681B681A68FB681B6822F040021A6047
:102D7000FB689B6AB3F5005F0FD1FB681B681A689C
:102D8000FB681B6822F400521A60FB681B681A6813
:102D9000FB681B6842F400521A60FB68012283F84A
:102DA0005120FB68002283F85020032317E07B6941
:102DB000002B01D10023FB617B69013B7B61FB6838
:102DC0001B689A68BB681340BA689A420CBF01231B
:102DD0000023DBB21A46FB799A429BD100231846A6
:102DE0002037BD4680BD00BF0000002080B586B002
:102DF00002AFF860B9607A60FB685B68B3F5827F08
:102E000011D1FB689B68B3F5004F04D0FB689B6849
:102E1000B3F5806F07D1FB681B681A68FB681B68F5
:102E200022F040021A60FB685B68B3F5827F2AD10A
:102E3000FB689B68B3F5806F12D07B680093BB681A
:102E400000228021F868FFF749FF0346002B2DD0B0
:102E5000FB685B6D43F02002FB685A65032326E0A4
:102E60007B680093BB6800220121F868FFF736FFFA
:102E70000346002B1AD0FB685B6D43F02002FB6811
:102E80005A65032313E07B680093BB68002201218D
:102E9000F868FFF723FF0346002B07D0FB685B6D44
:102EA00043F02002FB685A65032300E00023184624
:102EB0001037BD4680BD000080B588B002AFF86015
:102EC000B9607A607B680093BB6801220221F868D0
:102ED000FFF704FF0346002B07D0FB685B6D43F050
:102EE0002002FB685A65032332E01B4B1B681B4A18
:102EF000A2FB03235B0D4FF47A7202FB03F37B61A9
:102F0000FB685B68B3F5827F12D17B680093BB6876
:102F100000228021F868FFF7E1FE0346002B16D05F
:102F2000FB685B6D43F02002FB685A6503230FE0EA
:102F30007B69002B0AD07B69013B7B61FB681B68C6
:102F40009B6803F08003802BF2D000E000BF0023D9
:102F500018461837BD4680BD00000020819F5E16D0
:102F600080B582B000AF78607B68002B01D101236F
:102F700041E07B6893F83D30DBB2002B06D17B68E3
:102F8000002283F83C20786800F039F87B68022240
:102F900083F83D207B681A687B6804331946104625
:102FA00000F0B2F97B68012283F846207B68012299
:102FB00083F83E207B68012283F83F207B68012252
:102FC00083F840207B68012283F841207B6801223E
:102FD00083F842207B68012283F843207B6801222A
:102FE00083F844207B68012283F845207B68012216
:102FF00083F83D20002318460837BD4680BD80B4C5
:1030000083B000AF786000BF0C37BD465DF8047B2D
:103010007047000080B485B000AF78607B6893F89B
:103020003D30DBB2012B01D0012344E07B6802225A
:1030300083F83D207B681B68DA687B681B6842F078
:103040000102DA607B681B681E4A934218D07B68D5
:103050001B68B3F1804F13D07B681B681A4A9342F8
:103060000ED07B681B68194A934209D07B681B68A5
:10307000174A934204D07B681B68164A934211D1C9
:103080007B681B689B6803F00703FB60FB68062BEB
:1030900010D07B681B681A687B681B6842F00102CD
:1030A0001A6007E07B681B681A687B681B6842F03F
:1030B00001021A60002318461437BD465DF8047BF0
:1030C000704700BF000001400004004000080040BD
:1030D000000C00400040014080B584B000AF786033
:1030E0007B681B68DB68FB607B681B681B69BB60D7
:1030F000BB6803F00203002B20D0FB6803F002033F
:10310000002B1BD07B681B686FF002021A617B6882
:1031100001221A777B681B689B6903F00303002B6D
:1031200003D0786800F0D2F805E0786800F0C4F8C1
:10313000786800F0D5F87B6800221A77BB6803F046
:103140000403002B20D0FB6803F00403002B1BD0EA
:103150007B681B686FF004021A617B6802221A7791
:103160007B681B689B6903F44073002B03D078686D
:1031700000F0ACF805E0786800F09EF8786800F0A0
:10318000AFF87B6800221A77BB6803F00803002BB6
:1031900020D0FB6803F00803002B1BD07B681B6862
:1031A0006FF008021A617B6804221A777B681B683B
:1031B000DB6903F00303002B03D0786800F086F886
:1031C00005E0786800F078F8786800F089F87B68A6
:1031D00000221A77BB6803F01003002B20D0FB6895
:1031E00003F01003002B1BD07B681B686FF01002EC
:1031F0001A617B6808221A777B681B68DB6903F415
:103200004073002B03D0786800F060F805E0786820
:1032100000F052F8786800F063F87B6800221A77B3
:10322000BB6803F00103002B0CD0FB6803F0010323
:10323000002B07D07B681B686FF001021A61786869
:10324000FDF7DCFDBB6803F08003002B0CD0FB68AE
:1032500003F08003002B07D07B681B686FF08002AF
:103260001A61786800F0E6F8BB6803F04003002BB1
:103270000CD0FB6803F04003002B07D07B681B6871
:103280006FF040021A61786800F034F8BB6803F010
:103290002003002B0CD0FB6803F02003002B07D089
:1032A0007B681B686FF020021A61786800F0B8F83C
:1032B00000BF1037BD4680BD80B483B000AF7860DA
:1032C00000BF0C37BD465DF8047B704780B483B007
:1032D00000AF786000BF0C37BD465DF8047B7047D7
:1032E00080B483B000AF786000BF0C37BD465DF896
:1032F000047B704780B483B000AF786000BF0C37A8
:10330000BD465DF8047B704780B485B000AF78603F
:1033100039607B681B68FB607B683A4A93420FD038
:103320007B68B3F1804F0BD07B68374A934207D05C
:103330007B68364A934203D07B68354A934208D172
:10334000FB6823F07003FB603B685B68FA6813431B
:10335000FB607B682B4A93421BD07B68B3F1804FA4
:1033600017D07B68284A934213D07B68274A934240
:103370000FD07B68264A93420BD07B68254A934244
:1033800007D07B68244A934203D07B68234A934248
:1033900008D1FB6823F44073FB603B68DB68FA6884
:1033A0001343FB60FB6823F080023B685B691343B7
:1033B000FB607B68FA681A603B689A687B68DA622F
:1033C0003B681A687B689A627B680E4A934203D115
:1033D0003B681A697B681A637B6801225A617B68C3
:1033E0001B6903F00103012B05D17B681B6923F0E6
:1033F00001027B681A6100BF1437BD465DF8047B8B
:10340000704700BF00000140000400400008004079
:10341000000C0040004001400044014000480140D1
:1034200080B483B000AF786000BF0C37BD465DF854
:10343000047B704780B483B000AF786000BF0C3766
:10344000BD465DF8047B704780B582B000AF786000
:103450007B68002B01D1012342E07B6893F8413067
:10346000DBB2002B06D17B68002283F8402078680D
:10347000FDF750FD7B68242283F841207B681B68A0
:10348000DA687B681B6822F40052DA60786800F022
:10349000BDFD7B681B681A697B681B6822F490423B
:1034A0001A617B681B685A697B681B6822F02A02D4
:1034B0005A617B681B68DA687B681B6842F40052BB
:1034C000DA607B6800225A647B68202283F84120FE
:1034D0007B68202283F842207B6800225A63002305
:1034E00018460837BD4680BD80B58AB002AFF86087
:1034F000B9603B601346FB8000237B61FB6893F857
:103500004130DBB2202B75D1BB68002B02D0FB8889
:10351000002B01D101236EE0FB6800225A64FB6896
:10352000212283F84120FDF763FF7861FB68FA8868
:103530009A84FB68FA88DA84FB689B68B3F5805F3D
:1035400008D1FB681B69002B04D10023FB61BB6819
:10355000BB6103E0BB68FB610023BB612EE03B68FD
:1035600000937B6900228021F86800F01FFB03466E
:10357000002B05D0FB68202283F8412003233AE08A
:10358000FB69002B0BD1BB691B881A46FB681B68C3
:10359000C2F308025A60BB690233BB6107E0FB69F2
:1035A0001A78FB681B685A60FB690133FB61FB6892
:1035B000DB8C9BB2013B9AB2FB68DA84FB68DB8C44
:1035C0009BB2002BCBD13B6800937B69002240214A
:1035D000F86800F0EBFA0346002B05D0FB682022C8
:1035E00083F84120032306E0FB68202283F8412072
:1035F000002300E0022318462037BD4680BD80B579
:1036000084B000AFF860B9601346FB80FB6893F8A4
:103610004230DBB2202B12D1BB68002B02D0FB88DA
:10362000002B01D101230BE0FB6800221A63FB8809
:103630001A46B968F86800F012FB034600E002235E
:1036400018461037BD4680BD80B5BAB000AF78606F
:103650007B681B681B68C7F8E4307B681B68DB6805
:10366000C7F8E0307B681B685B69C7F8DC30002373
:10367000C7F8D8300023C7F8D430D7F8E43003F0C7
:103680000F03C7F8D830D7F8D830002B0FD1D7F8B0
:10369000E43003F02003002B09D0D7F8E03003F02A
:1036A0002003002B03D0786800F0F2FB5BE2D7F830
:1036B000D830002B00F0DE80D7F8DC3003F00103B7
:1036C000002B06D1D7F8E03003F49073002B00F004
:1036D000D180D7F8E43003F00103002B0BD0D7F8EA
:1036E000E03003F48073002B05D07B685B6C43F003
:1036F00001027B685A64D7F8E43003F00403002B1E
:103700000BD0D7F8DC3003F00103002B05D07B6829
:103710005B6C43F002027B685A64D7F8E43003F034
:103720000203002B0BD0D7F8DC3003F00103002B91
:1037300005D07B685B6C43F004027B685A64D7F861
:10374000E43003F00803002B11D0D7F8E03003F089
:103750002003002B05D1D7F8DC3003F00103002B48
:1037600005D07B685B6C43F008027B685A647B6819
:103770005B6C002B00F0F281D7F8E43003F02003FB
:10378000002B08D0D7F8E03003F02003002B02D044
:10379000786800F07DFB7B681B685B6903F0400381
:1037A000402B0CBF01230023DBB2C7F8D4307B6869
:1037B0005B6C03F00803002B03D1D7F8D430002B47
:1037C0004FD0786800F085FA7B681B685B6903F06E
:1037D0004003402B41D17B681B681433C7F89C30F1
:1037E000D7F89C3053E8003FC7F89830D7F89830A6
:1037F00023F04003C7F8D0307B681B681433D7F838
:10380000D020C7F8A820C7F8A430D7F8A410D7F85C
:10381000A82041E80023C7F8A030D7F8A030002B3B
:10382000D9D17B68DB6B002B13D07B68DB6B7E4AC6
:103830001A657B68DB6B1846FDF75CFF0346002BBF
:1038400016D07B68DB6B1B6D7A68D26B104698478D
:103850000EE0786800F094F90AE0786800F090F9DA
:1038600006E0786800F08CF97B6800225A6475E104
:1038700000BF73E17B681B6B012B40F04F81D7F8D1
:10388000E43003F01003002B00F04881D7F8E0305B
:1038900003F01003002B00F041810023BB607B6824
:1038A0001B681B68BB607B681B685B68BB60BB6890
:1038B0007B681B685B6903F04003402B40F0B680D7
:1038C0007B68DB6B1B685B68A7F8BE30B7F8BE305F
:1038D000002B00F045817B689B8DB7F8BE209A4293
:1038E00080F03E817B68B7F8BE20DA857B68DB6BB1
:1038F000DB69B3F5807F00F088807B681B680C3340
:10390000C7F88830D7F8883053E8003FC7F88430CC
:10391000D7F8843023F48073C7F8B8307B681B680D
:103920000C33D7F8B820C7F89420C7F89030D7F8F0
:103930009010D7F8942041E80023C7F88C30D7F8CE
:103940008C30002BD9D17B681B6814337B677B6F6D
:1039500053E8003F3B673B6F23F00103C7F8B430E7
:103960007B681B681433D7F8B420C7F88020FB6746
:10397000F96FD7F8802041E80023BB67BB6F002BAD
:10398000E1D17B681B6814333B663B6E53E8003F14
:10399000FB65FB6D23F04003C7F8B0307B681B6804
:1039A0001433D7F8B020FA66BB66B96EFA6E41E8F8
:1039B00000237B667B6E002BE3D17B68202283F89B
:1039C00042207B6800221A637B681B680C33FB640F
:1039D000FB6C53E8003FBB64BB6C23F01003C7F8DB
:1039E000AC307B681B680C33D7F8AC20BA657B65BC
:1039F000796DBA6D41E800233B653B6D002BE3D147
:103A00007B68DB6B1846FDF705FE7B6802225A6374
:103A10007B689A8D7B68DB8D9BB2D31A9BB219466B
:103A2000786800F0B7F89BE0993D00087B689A8DB4
:103A30007B68DB8D9BB2D31AA7F8CE307B68DB8D19
:103A40009BB2002B00F08E80B7F8CE30002B00F038
:103A500089807B681B680C33BB63BB6B53E8003FFA
:103A60007B637B6B23F49073C7F8C8307B681B685B
:103A70000C33D7F8C8207A643B64396C7A6C41E81F
:103A80000023FB63FB6B002BE3D17B681B681433C3
:103A90007B627B6A53E8003F3B623B6A23F0010391
:103AA000C7F8C4307B681B681433D7F8C4203A6366
:103AB000FB62F96A3A6B41E80023BB62BB6A002BE8
:103AC000E3D17B68202283F842207B6800221A63BE
:103AD0007B681B680C333B613B6953E8003FFB602C
:103AE000FB6823F01003C7F8C0307B681B680C33F9
:103AF000D7F8C020FA61BB61B969FA6941E80023CF
:103B00007B617B69002BE3D17B6802225A63B7F8A3
:103B1000CE301946786800F03DF823E0D7F8E4305D
:103B200003F08003002B09D0D7F8E03003F08003C6
:103B3000002B03D0786800F043F914E0D7F8E430A4
:103B400003F04003002B0ED0D7F8E03003F0400321
:103B5000002B08D0786800F083F904E000BF02E091
:103B600000BF00E000BFE837BD4680BD80B483B031
:103B700000AF786000BF0C37BD465DF8047B70472E
:103B800080B483B000AF786000BF0C37BD465DF8ED
:103B9000047B704780B483B000AF78600B467B80B5
:103BA00000BF0C37BD465DF8047B704780B586B01A
:103BB00000AFF860B9603B601346FB713BE03B6AC5
:103BC000B3F1FF3F37D0FDF713FC02463B68D31A31
:103BD0003A6A9A4202D33B6A002B01D103233AE0AE
:103BE000FB681B68DB6803F00403002B23D0BB6871
:103BF000802B20D0BB68402B1DD0FB681B681B6846
:103C000003F00803082B16D100237B61FB681B68B7
:103C10001B687B61FB681B685B687B617B69F8687C
:103C200000F057F8FB6808225A64FB68002283F80A
:103C3000402001230FE0FB681B681A68BB68134033
:103C4000BA689A420CBF01230023DBB21A46FB7903
:103C50009A42B4D0002318461837BD4680BD80B4C0
:103C600085B000AFF860B9601346FB80FB68BA68A6
:103C70009A62FB68FA889A85FB68FA88DA85FB689D
:103C800000225A64FB68222283F84220FB681B69E9
:103C9000002B07D0FB681B68DA68FB681B6842F4DE
:103CA0008072DA60FB681B685A69FB681B6842F027
:103CB00001025A61FB681B68DA68FB681B6842F006
:103CC0002002DA60002318461437BD465DF8047BF5
:103CD000704780B495B000AF78607B681B680C3388
:103CE0007B637B6B53E8003F3B633B6B23F4907338
:103CF000FB647B681B680C33FA6C3A64FB63F96BFA
:103D00003A6C41E80023BB63BB6B002BE5D17B68B9
:103D10001B6814333B623B6A53E8003FFB61FB695D
:103D200023F00103BB647B681B681433BA6CFA622E
:103D3000BB62B96AFA6A41E800237B627B6A002BA6
:103D4000E5D17B681B6B012B19D17B681B680C3399
:103D5000FB60FB6853E8003FBB60BB6823F01003C7
:103D60007B647B681B680C337A6CBA617B61796910
:103D7000BA6941E800233B613B69002BE5D17B68D0
:103D8000202283F842207B6800221A6300BF543748
:103D9000BD465DF8047B704780B584B000AF7860A5
:103DA0007B689B6BFB60FB680022DA85FB68002266
:103DB000DA84F868FFF7E4FE00BF1037BD4680BD27
:103DC00080B485B000AF78607B6893F84130DBB297
:103DD000212B3ED17B689B68B3F5805F14D17B6853
:103DE0001B69002B10D17B681B6AFB60FB681B887A
:103DF0001A467B681B68C2F308025A607B681B6A1C
:103E00009A1C7B681A6208E07B681B6A591C7A68F6
:103E100011621A787B681B685A607B68DB8C9BB2E6
:103E2000013B9BB27A681946D184002B0FD17B6885
:103E30001B68DA687B681B6822F08002DA607B68A6
:103E40001B68DA687B681B6842F04002DA60002376
:103E500000E0022318461437BD465DF8047B704726
:103E600080B582B000AF78607B681B68DA687B68D9
:103E70001B6822F04002DA607B68202283F8412030
:103E80007868FFF773FE002318460837BD4680BDEB
:103E900080B58CB000AF78607B6893F84230DBB2BD
:103EA000222B40F0AE807B689B68B3F5805F17D112
:103EB0007B681B69002B13D10023FB627B689B6A24
:103EC000BB627B681B685B689BB2C3F308039AB252
:103ED000BB6A1A807B689B6A9A1C7B689A6226E0A0
:103EE0007B689B6AFB620023BB627B689B68B3F5BF
:103EF000805F07D07B689B68002B0AD17B681B69B9
:103F0000002B06D17B681B685B68DAB2FB6A1A700B
:103F100008E07B681B685B68DBB203F07F03DAB202
:103F2000FB6A1A707B689B6A5A1C7B689A627B6882
:103F3000DB8D9BB2013B9BB27A681946D185002B81
:103F40005DD17B681B68DA687B681B6822F0200201
:103F5000DA607B681B68DA687B681B6822F4807211
:103F6000DA607B681B685A697B681B6822F0010273
:103F70005A617B68202283F842207B6800225A63C2
:103F80007B681B6B012B35D17B6800221A637B6831
:103F90001B680C337B617B6953E8003F3B613B69E5
:103FA00023F010037B627B681B680C337A6A3A62E9
:103FB000FB61F9693A6A41E80023BB61BB69002BE8
:103FC000E5D17B681B681B6803F01003102B0AD136
:103FD0000023FB607B681B681B68FB607B681B68B9
:103FE0005B68FB60FB687B689B8D19467868FFF710
:103FF000D1FD02E07868FDF733F9002302E00023E9
:1040000000E0022318463037BD4680BD2DE9B04F91
:10401000C0B000AFC7F8F400D7F8F4301B681B69D4
:1040200023F44050D7F8F430D968D7F8F4301A6840
:1040300040EA01031361D7F8F4309A68D7F8F430F6
:104040001B691A43D7F8F4305B691A43D7F8F43088
:10405000DB691343C7F8F830D7F8F4301B68DB6826
:1040600023F4164121F00C01D7F8F4301A68D7F880
:10407000F8300B43D360D7F8F4301B685B6923F446
:104080004070D7F8F4309969D7F8F4301A6840EAEC
:1040900001035361D7F8F4301A688F4B9A4205D068
:1040A000D7F8F4301A688D4B9A4204D1FEF740F9E4
:1040B000C7F8FC0003E0FEF727F9C7F8FC00D7F8C3
:1040C000F430DB69B3F5004F40F00C81D7F8FC30D9
:1040D0000022C7F8E830C7F8EC20D7E93A45224675
:1040E0002B469118B9655B41FB65D7E9162321463C
:1040F00012EB0108294643EB01094FF000024FF093
:1041000000034FEAC90343EA58734FEAC8029046D6
:104110009946234618EB0303C7F8E0302B4649EBDA
:104120000303C7F8E430D7F8F4305B680022C7F81F
:10413000D830C7F8DC20D7E936120B46DB183B65D0
:10414000134642EB03037B65D7E91423D7E9380113
:10415000FCF79EF802460B46614BA3FB02235B096A
:104160001C01D7F8FC300022C7F8D030C7F8D420A3
:10417000D7E9348942464B469118B9645B41FB64E8
:10418000D7E91223414612EB010A494643EB010BE2
:104190004FF000024FF000034FEACB0343EA5A739B
:1041A0004FEACA0292469B4643461AEB0303C7F8FE
:1041B000C8304B464BEB0303C7F8CC30D7F8F4308C
:1041C0005B680022C7F8C030C7F8C420D7E93012B6
:1041D0000B46DB183B64134642EB03037B64D7E9D1
:1041E0001023D7E93201FCF753F802460B4611467B
:1041F0003B4BA3FB01235B09642202FB03F3CB1AB5
:10420000DB0003F13202364BA3FB02235B095B00A8
:1042100003F4F8731C44D7F8FC300022C7F8B83018
:10422000C7F8BC20D7E92E8942464B469118B9639E
:104230005B41FB63D7E90E23414651183963494678
:104240004B417B634FF000024FF00003D7E90CAB0A
:104250005946CB00514643EA51735146CA001046B5
:104260001946034642469B18C7F8B0304B460A46EB
:1042700042EB0303C7F8B430D7F8F4305B68002290
:10428000C7F8A830C7F8AC20D7E92A120B46DB18CC
:10429000BB62134642EB0303FB62D7E90A23D7E96B
:1042A0002C01FBF7F5FF02460B460D4BA3FB021357
:1042B0005B09642101FB03F3D31ADB003233084AA4
:1042C000A2FB03235B0903F00702D7F8F4301B6855
:1042D00022449A6006E100BF001001400014014032
:1042E0001F85EB51D7F8FC300022C7F8A030C7F883
:1042F000A420D7E9288942464B46911839625B4190
:104300007B62D7E9082341465418494643EB01052F
:104310004FF000024FF00003EB0043EA5473E20059
:1043200014461D464346E318C7F898304B4645EB04
:104330000303C7F89C30D7F8F4305B680022C7F855
:104340009030C7F894204FF000024FF00003D7E9F7
:10435000244529468B00214643EA917321468A0071
:10436000D7E92601FBF794FF02460B46604BA3FBFF
:1043700002235B091C01D7F8FC300022C7F8883003
:10438000C7F88C20D7E9228942464B469118B9617B
:104390005B41FB61D7E90623414651183961494623
:1043A0004B417B614FF000024FF00003D7E904ABB3
:1043B0005946CB00514643EA51735146CA00104654
:1043C0001946034642469B18C7F880304B460A46BA
:1043D00042EB0303C7F88430D7F8F4305B6800225F
:1043E000BB67FA674FF000024FF00003D7E91E8960
:1043F00049468B00414643EA917341468A00D7E91A
:104400002001FBF745FF02460B461146384BA3FB44
:1044100001235B09642202FB03F3CB1A1B01323335
:10442000334AA2FB03235B0903F0F0031C44D7F8D3
:10443000FC3000223B677A67D7E91C8942464B462D
:104440009118B9605B41FB60D7E9022341465118DE
:10445000396049464B417B604FF000024FF000034A
:10446000D7E900AB5946CB00514643EA5173514658
:10447000CA0010461946034642469B18BB664B4687
:104480000A4642EB0303FB66D7F8F4305B68002270
:104490003B667A664FF000024FF00003D7E91889B7
:1044A00049468B00414643EA917341468A00D7E969
:1044B0001A01FBF7EDFE02460B460D4BA3FB021360
:1044C0005B09642101FB03F3D31A1B013233084A51
:1044D000A2FB03235B0903F00F02D7F8F4301B683B
:1044E00022449A6000BF07F58077BD46BDE8B08FD3
:1044F0001F85EB5180B483B000AF03463960FB7178
:1045000097F90730002B0ADB3B68DAB20C4997F9C0
:1045100007301201D2B20B4483F800230AE03B6853
:10452000DAB20849FB7903F00F03043B1201D2B25F
:104530000B441A7600BF0C37BD465DF8047B70470C
:1045400000E100E000ED00E080B500AF054B1B6826
:1045500001F0B4FD0346012B01D002F0ADFB00BF1A
:1045600080BD00BF10E000E080B500AF00216FF01B
:104570000400FFF7BFFF00BF80BD000080B483B020
:1045800000AFEFF305833B603B68002B03D06FF077
:1045900005037B600CE00A4B1B68002B05D1084B20
:1045A00001221A6000237B6002E04FF0FF337B6042
:1045B0007B6818460C37BD465DF8047B704700BF2A
:1045C0007802002080B582B000AFEFF305833B6036
:1045D0003B68002B03D06FF005037B6010E00B4BB2
:1045E0001B68012B09D1FFF7BFFF084B02221A609D
:1045F00001F0EEF800237B6002E04FF0FF337B60B8
:104600007B6818460837BD4680BD00BF7802002091
:1046100080B58EB004AFF860B9607A6000233B616A
:10462000EFF305837B617B69002B7FD1FB68002B57
:104630007CD04FF4C8733B621823FB6100237B627C
:104640004FF0FF33BB617B68002B45D07B681B6854
:10465000002B02D07B681B687B627B689B69002B08
:1046600002D07B689B69FB61FB69002B08D0FB696A
:10467000382B05D87B685B6803F00103002B01D061
:10468000002354E07B685B69002B03D07B685B6987
:104690009B083B627B689B68002B0ED07B68DB68C5
:1046A000A72B0AD97B681B69002B06D07B685B6946
:1046B000002B02D00123BB6110E07B689B68002BBC
:1046C0000CD17B68DB68002B08D17B681B69002B51
:1046D00004D10023BB6101E00023BB61BB69012B56
:1046E00010D17B681B697A68926802920193FB691A
:1046F0000093BB683A6A796AF86800F075FE034671
:104700003B6113E0BB69002B10D13B6A9AB207F101
:1047100010030193FB690093BB68796AF86800F0A5
:10472000C3FE0346012B01D000233B613B691846C1
:104730002837BD4680BD80B584B000AF7860EFF308
:104740000583BB60BB68002B03D06FF00503FB60E3
:1047500007E00023FB607B68002B02D0786801F043
:1047600001F8FB6818461037BD4680BD80B485B09F
:1047700000AFF860B9607A60FB68074A1A60BB68EE
:10478000064A1A607B684FF4C8721A6000BF14377B
:10479000BD465DF8047B70477C02002024030020A6
:1047A00080B485B000AFF860B9607A60FB68074AF2
:1047B0001A60BB68064A1A607B684FF448721A6038
:1047C00000BF1437BD465DF8047B704764090020C4
:1047D0000C0A002080B483B000AF78607B6803F1DE
:1047E00008027B685A607B684FF0FF329A607B68F2
:1047F00003F108027B68DA607B6803F108027B68DA
:104800001A617B6800221A6000BF0C37BD465DF854
:10481000047B704780B483B000AF78607B6800226F
:104820001A6100BF0C37BD465DF8047B704780B449
:1048300085B000AF786039607B685B68FB603B687F
:10484000FA685A60FB689A683B689A60FB689B68E4
:104850003A685A60FB683A689A603B687A681A61FD
:104860007B681B685A1C7B681A6000BF1437BD4602
:104870005DF8047B704780B485B000AF7860396024
:104880003B681B68BB60BB68B3F1FF3F03D17B682B
:104890001B69FB600CE07B680833FB6002E0FB688F
:1048A0005B68FB60FB685B681B68BA689A42F6D27B
:1048B000FB685A683B685A603B685B683A689A6074
:1048C0003B68FA689A60FB683A685A603B687A68A5
:1048D0001A617B681B685A1C7B681A6000BF14371A
:1048E000BD465DF8047B704780B485B000AF78604A
:1048F0007B681B69FB607B685B687A6892689A607A
:104900007B689B687A6852685A60FB685B687A6863
:104910009A4203D17B689A68FB685A607B680022E0
:104920001A61FB681B685A1EFB681A60FB681B68EB
:1049300018461437BD465DF8047B704780B584B0D7
:1049400000AF786039607B68FB60FB68002B0BD19F
:104950004FF0500383F31188BFF36F8FBFF34F8F76
:10496000BB6000BF00BFFDE702F016F9FB681A68E4
:10497000FB68DB6BF968096C01FB03F31A44FB6805
:104980009A60FB6800229A63FB681A68FB685A60A9
:10499000FB681A68FB68DB6B013BF968096C01FB7B
:1049A00003F31A44FB68DA60FB68FF2283F84420B3
:1049B000FB68FF2283F845203B68002B14D1FB687D
:1049C0001B69002B1AD0FB681033184601F0B0F9B0
:1049D0000346002B12D00D4B4FF080521A60BFF3EC
:1049E0004F8FBFF36F8F09E0FB6810331846FFF756
:1049F000F1FEFB6824331846FFF7ECFE02F0FEF8E8
:104A0000012318461037BD4680BD00BF04ED00E00D
:104A100080B58EB002AFF860B9607A603B60FB6829
:104A2000002B0BD14FF0500383F31188BFF36F8F2E
:104A3000BFF34F8FBB6200BF00BFFDE73B68002B99
:104A40000BD14FF0500383F31188BFF36F8FBFF387
:104A50004F8F7B6200BF00BFFDE77B68002B02D059
:104A6000BB68002B01D0012300E00023002B0BD1F9
:104A70004FF0500383F31188BFF36F8FBFF34F8F55
:104A80003B6200BF00BFFDE77B68002B02D1BB6823
:104A9000002B01D1012300E00023002B0BD14FF0AC
:104AA000500383F31188BFF36F8FBFF34F8FFB6108
:104AB00000BF00BFFDE750237B617B69502B0BD00B
:104AC0004FF0500383F31188BFF36F8FBFF34F8F05
:104AD000BB6100BF00BFFDE77B693B68FB62FB6A0F
:104AE000002B0DD0FB6A012283F8462097F838206E
:104AF000FB6A009313467A68B968F86800F040F8DA
:104B0000FB6A18463037BD4680BD80B58AB002AF1B
:104B1000F860B9601346FB71FB68002B0BD14FF0B6
:104B2000500383F31188BFF36F8FBFF34F8F3B6147
:104B300000BF00BFFDE7FB68BA6802FB03F3FB613F
:104B4000FB695033184602F049F9B861BB69002B84
:104B500011D0BB697B617B6950337B61BB690022EB
:104B600083F84620FA79BB69009313467A69B968DD
:104B7000F86800F005F8BB6918462037BD4680BDCF
:104B800080B584B000AFF860B9607A60FB70BB6834
:104B9000002B03D1BB69BA691A6002E0BB697A686D
:104BA0001A60BB69FA68DA63BB69BA681A640121E2
:104BB000B869FFF7C3FEBB69FA7883F84C2000BFE1
:104BC0001037BD4680BD000080B58EB000AFF860E4
:104BD000B9607A603B6000237B63FB683B633B6B9F
:104BE000002B0BD14FF0500383F31188BFF36F8F6D
:104BF000BFF34F8FBB6200BF00BFFDE7BB68002B58
:104C000003D13B6B1B6C002B01D1012300E000237F
:104C1000002B0BD14FF0500383F31188BFF36F8F3C
:104C2000BFF34F8F7B6200BF00BFFDE73B68022BE5
:104C300003D13B6BDB6B012B01D1012300E000238F
:104C4000002B0BD14FF0500383F31188BFF36F8F0C
:104C5000BFF34F8F3B6200BF00BFFDE701F02EFAAC
:104C60000346002B02D17B68002B01D1012300E019
:104C70000023002B0BD14FF0500383F31188BFF3B7
:104C80006F8FBFF34F8FFB6100BF00BFFDE701F0E7
:104C900083FF3B6B9A6B3B6BDB6B9A4202D33B68A7
:104CA000022B29D13A68B968386B00F02EFAF86205
:104CB0003B6B5B6A002B10D03B6B2433184601F032
:104CC00037F80346002B13D03F4B4FF080521A6049
:104CD000BFF34F8FBFF36F8F0AE0FB6A002B07D043
:104CE000394B4FF080521A60BFF34F8FBFF36F8F75
:104CF00001F084FF012363E07B68002B03D101F006
:104D00007DFF00235CE07B6B002B06D107F11403D1
:104D1000184601F071F801237B6301F06FFF00F08A
:104D2000C7FD01F039FF3B6B93F844305BB2B3F140
:104D3000FF3F03D13B6B002283F844203B6B93F889
:104D400045305BB2B3F1FF3F03D13B6B002283F8E8
:104D5000452001F053FF3A1D07F114031146184690
:104D600001F060F80346002B24D1386B00F0C5FA3F
:104D70000346002B18D03B6B10337A681146184657
:104D800000F084FF386B00F050FA00F09FFD0346FE
:104D9000002B7FF47CAF0C4B4FF080521A60BFF3B6
:104DA0004F8FBFF36F8F72E7386B00F03EFA00F061
:104DB0008DFD6CE7386B00F038FA00F087FD0023BA
:104DC00018463837BD4680BD04ED00E080B590B090
:104DD00000AFF860B9607A603B60FB68BB63BB6B97
:104DE000002B0BD14FF0500383F31188BFF36F8F6B
:104DF000BFF34F8FBB6200BF00BFFDE7BB68002B56
:104E000003D1BB6B1B6C002B01D1012300E00023FD
:104E1000002B0BD14FF0500383F31188BFF36F8F3A
:104E2000BFF34F8F7B6200BF00BFFDE73B68022BE3
:104E300003D1BB6BDB6B012B01D1012300E000230D
:104E4000002B0BD14FF0500383F31188BFF36F8F0A
:104E5000BFF34F8F3B6200BF00BFFDE701F07CFF57
:104E6000EFF311824FF0500383F31188BFF36F8F7C
:104E7000BFF34F8FFA61BB61FB697B63BB6B9A6BBE
:104E8000BB6BDB6B9A4202D33B68022B2FD1BB6B0F
:104E900093F8453087F83330BB6B9B6BFB623A6805
:104EA000B968B86B00F031F997F93330B3F1FF3FCF
:104EB00012D1BB6B5B6A002B16D0BB6B2433184638
:104EC00000F036FF0346002B0ED07B68002B0BD082
:104ED0007B6801221A6007E097F833300133DBB2B8
:104EE0005AB2BB6B83F845200123FB6301E000232A
:104EF000FB637B6B7B617B6983F3118800BFFB6B7A
:104F000018464037BD4680BD80B58CB000AFF86014
:104F1000B9607A600023FB62FB68BB62BB6A002B4E
:104F20000BD14FF0500383F31188BFF36F8FBFF3A2
:104F30004F8F3B6200BF00BFFDE7BB68002B03D172
:104F4000BB6A1B6C002B01D1012300E00023002B66
:104F50000BD14FF0500383F31188BFF36F8FBFF372
:104F60004F8FFB6100BF00BFFDE701F0A7F80346CC
:104F7000002B02D17B68002B01D1012300E000232C
:104F8000002B0BD14FF0500383F31188BFF36F8FC9
:104F9000BFF34F8FBB6100BF00BFFDE701F0FCFD19
:104FA000BB6A9B6B7B627B6A002B1FD0B968B86AB7
:104FB00000F015F97B6A5A1EBB6A9A63BB6A1B69CB
:104FC000002B0FD0BB6A1033184600F0B1FE034629
:104FD000002B07D03C4B4FF080521A60BFF34F8F2D
:104FE000BFF36F8F01F00AFE012369E07B68002B9D
:104FF00003D101F003FE002362E0FB6A002B06D11F
:1050000007F11003184600F0F7FE0123FB6201F0E0
:10501000F5FD00F04DFC01F0BFFDBB6A93F8443094
:105020005BB2B3F1FF3F03D1BB6A002283F8442097
:10503000BB6A93F845305BB2B3F1FF3F03D1BB6A63
:10504000002283F8452001F0D9FD3A1D07F1100335
:105050001146184600F0E6FE0346002B23D1B86A3D
:1050600000F035F90346002B17D0BB6A24337A6869
:105070001146184600F00AFEB86A00F0D6F800F0B3
:1050800025FC0346002B89D10F4B4FF080521A604C
:10509000BFF34F8FBFF36F8F80E7B86A00F0C5F89A
:1050A00000F014FC7AE7B86A00F0BFF800F00EFCDC
:1050B000B86A00F00CF90346002B3FF46FAF0023F1
:1050C00018463037BD4680BD04ED00E080B584B0A1
:1050D00000AF78607B68002B0BD14FF0500383F357
:1050E0001188BFF36F8FBFF34F8FBB6000BF00BF4E
:1050F000FDE701F051FD7B689B6BFB6001F07EFDDD
:10510000FB6818461037BD4680BD80B586B000AF3D
:10511000F860B9607A6000237B61FB689B6B3B6140
:10512000FB681B6C002B0DD1FB681B68002B4DD15D
:10513000FB689B68184600F0DFFF7861FB6800227F
:105140009A6043E07B68002B19D1FB685868FB68C4
:105150001B6C1A46B96802F0F3F8FB685A68FB68E2
:105160001B6C1A44FB685A60FB685A68FB689B68B2
:105170009A422BD3FB681A68FB685A6026E0FB68EA
:10518000D868FB681B6C1A46B96802F0D9F8FB684E
:10519000DA68FB681B6C5B421A44FB68DA60FB68E8
:1051A000DA68FB681B689A4207D2FB689A68FB685A
:1051B0001B6C5B421A44FB68DA607B68022B05D1EA
:1051C0003B69002B02D03B69013B3B613B695A1CA8
:1051D000FB689A637B6918461837BD4680BD80B569
:1051E00082B000AF786039607B681B6C002B18D0F0
:1051F0007B68DA687B681B6C1A447B68DA607B68C2
:10520000DA687B689B689A4203D37B681A687B687C
:10521000DA607B68D9687B681B6C1A46386802F0D4
:105220008FF800BF0837BD4680BD80B584B000AFA1
:10523000786001F0B1FC7B6893F84530FB7311E0B6
:105240007B685B6A002B12D07B682433184600F021
:105250006FFD0346002B01D000F048FEFB7B013BB5
:10526000DBB2FB7397F90F30002BE9DC00E000BFE5
:105270007B68FF2283F8452001F0C0FC01F08CFC24
:105280007B6893F84430BB7311E07B681B69002B8B
:1052900012D07B681033184600F04AFD0346002BFD
:1052A00001D000F023FEBB7B013BDBB2BB7397F95F
:1052B0000E30002BE9DC00E000BF7B68FF2283F8A2
:1052C000442001F09BFC00BF1037BD4680BD80B577
:1052D00084B000AF786001F05FFC7B689B6B002BB3
:1052E00002D10123FB6001E00023FB6001F086FC9A
:1052F000FB6818461037BD4680BD80B584B000AF4E
:10530000786001F049FC7B689A6B7B68DB6B9A42A2
:1053100002D10123FB6001E00023FB6001F06EFC81
:10532000FB6818461037BD4680BD000080B485B0CC
:1053300000AF786039600023FB6014E00F4AFB681F
:1053400052F83330002B0BD10C49FB683A6841F816
:1053500033200A4AFB68DB0013447A685A6006E08F
:10536000FB680133FB60FB68072BE7D900BF00BF78
:105370001437BD465DF8047B704700BF8C160020D3
:1053800080B586B000AFF860B9607A60FB687B6179
:1053900001F002FC7B6993F844305BB2B3F1FF3F4C
:1053A00003D17B69002283F844207B6993F8453060
:1053B0005BB2B3F1FF3F03D17B69002283F8452044
:1053C00001F01CFC7B699B6B002B06D17B692433AD
:1053D0007A68B968184600F07FFC7869FFF725FF06
:1053E00000BF1837BD4680BD80B58EB004AFF860F1
:1053F000B9607A603B607B6B002B0BD14FF05003A0
:1054000083F31188BFF36F8FBFF34F8F3B6200BFF1
:1054100000BFFDE7BB6B002B0BD14FF0500383F3B4
:105420001188BFF36F8FBFF34F8FFB6100BF00BFC9
:10543000FDE7A8233B613B69A82B0BD04FF050033D
:1054400083F31188BFF36F8FBFF34F8FBB6100BF32
:1054500000BFFDE73B69BB6B002B1ED07B6B002BB5
:105460001BD0BB6B7B627B6A7A6B1A637B6A0222FE
:1054700083F8A520002303937B6A029307F11403AA
:1054800001933B6B00933B687A68B968F86800F059
:1054900051F8786A00F0F6F801E000237B617B693F
:1054A00018462837BD4680BD80B58CB004AFF86083
:1054B000B9603B601346FB80FB889B00184601F0F7
:1054C0008DFC78617B69002B0ED0A82001F086FC52
:1054D000F861FB69002B03D0FB697A691A6305E068
:1054E000786901F049FD01E00023FB61FB69002BB5
:1054F00017D0FB69002283F8A520FA8800230393C4
:10550000FB690293FB6A0193BB6A00933B68B9682D
:10551000F86800F00FF8F86900F0B4F80123BB61F7
:1055200002E04FF0FF33BB61BB6918462037BD4630
:1055300080BD000080B588B000AFF860B9607A60C7
:105540003B603B6B186B7B689B001A46A52101F002
:105550006DFE3B6B1A6B7B6803F18043013B9B0044
:105560001344BB61BB6923F00703BB61BB6903F054
:105570000703002B0BD04FF0500383F31188BFF3C8
:105580006F8FBFF34F8F7B6100BF00BFFDE7BB682C
:10559000002B1FD00023FB6112E0BA68FB691344A3
:1055A00019783A6BFB69134434330A461A70BA68A7
:1055B000FB6913441B78002B06D0FB690133FB61A8
:1055C000FB690F2BE9D900E000BF3B6B002283F899
:1055D000432003E03B6B002283F83420BB6A372B67
:1055E00001D93723BB623B6BBA6ADA623B6BBA6A9A
:1055F000DA643B6B00221A653B6B04331846FFF7F5
:1056000009F93B6B18331846FFF704F93B6B3A6B0B
:105610001A61BB6AC3F138023B6B9A613B6B3A6B10
:105620005A623B6B0022C3F8A0203B6B002283F838
:10563000A4203B6B54334C220021184601F0F6FDA8
:105640003B6B0D4A9A653B6B0C4ADA653B6B0C4A27
:105650001A663A68F968B86901F06CF902463B6B62
:105660001A60FB6A002B02D0FB6A3A6B1A6000BF1B
:105670002037BD4680BD00BF20590020885900203A
:10568000F059002080B582B000AF786001F084FA54
:105690002D4B1B6801332C4A13602C4B1B68002BCD
:1056A00009D12A4A7B681360274B1B68012B10D154
:1056B00000F040FC0DE0264B1B68002B09D1234B6A
:1056C0001B68DA6A7B68DB6A9A4202D81F4A7B68E9
:1056D0001360204B1B6801331E4A13601D4B1A6870
:1056E0007B685A647B68DA6A1B4B1B689A4203D951
:1056F0007B68DB6A184A13607B68DA6A13469B0092
:1057000013449B00154A1A447B680433194610461B
:10571000FFF78DF801F072FA0D4B1B68002B0ED0CD
:105720000A4B1B68DA6A7B68DB6A9A4207D20C4B29
:105730004FF080521A60BFF34F8FBFF36F8F00BFDF
:105740000837BD4680BD00BFA01B0020CC1600203E
:10575000AC1B0020BC1B0020A81B0020D016002082
:1057600004ED00E080B584B000AF78600023FB60FA
:105770007B68002B18D0144B1B68002B0BD04FF00C
:10578000500383F31188BFF36F8FBFF34F8FBB605C
:1057900000BF00BFFDE700F08BF80021786800F043
:1057A0001BFD00F093F8F860FB68002B07D1074B56
:1057B0004FF080521A60BFF34F8FBFF36F8F00BF5F
:1057C0001037BD4680BD00BFC81B002004ED00E0BF
:1057D00080B58AB004AF0023BB6000237B603A46EB
:1057E000391D07F108031846FEF7C0FF39687B68CA
:1057F000BA68029201930023009300230A462449C9
:105800002448FFF7F1FD0346234A1360224B1B682F
:10581000002B02D001237B6101E000237B617B69C7
:10582000012B02D100F02CFD78617B69012B1BD18B
:105830004FF0500383F31188BFF36F8FBFF34F8F87
:105840003B6100BF154B1B685433154A1360154B61
:105850004FF0FF321A60144B01221A60134B0022E2
:105860001A6001F0F5F80FE07B69B3F1FF3F0BD14F
:105870004FF0500383F31188BFF36F8FBFF34F8F47
:10588000FB6000BF00BFFDE700BF1837BD4680BD0D
:10589000AC7C0008055F0008C41B0020CC1600206B
:1058A00010000020C01B0020AC1B0020A41B002007
:1058B00080B400AF044B1B680133034A136000BF80
:1058C000BD465DF8047B7047C81B002080B584B0DE
:1058D00000AF0023FB600023BB60424B1B68002B22
:1058E0000BD14FF0500383F31188BFF36F8FBFF3D9
:1058F0004F8F3B6000BF00BFFDE701F04DF9394B12
:105900001B68013B374A1360364B1B68002B62D182
:10591000354B1B68002B5ED02FE0344BDB68DB6817
:10592000FB60FB6818331846FEF7DEFFFB680433A4
:105930001846FEF7D9FFFB68DA6A2D4B1B689A42BE
:1059400003D9FB68DB6A2A4A1360FB68DA6A1346EC
:105950009B0013449B00274A1A44FB6804331946F2
:105960001046FEF764FFFB68DA6A234B1B68DB6AAC
:105970009A4202D3214B01221A601C4B1B68002B58
:10598000CBD1FB68002B01D000F078FB1C4B1B68CF
:105990007B607B68002B10D000F058F80346002B8A
:1059A00002D0164B01221A607B68013B7B607B684A
:1059B000002BF1D1124B00221A60104B1B68002BF8
:1059C00009D00123BB600F4B4FF080521A60BFF328
:1059D0004F8FBFF36F8F01F011F9BB681846103776
:1059E000BD4680BDC81B0020A01B0020601B0020FE
:1059F000A81B0020D0160020CC160020B41B0020CD
:105A0000B01B002004ED00E080B483B000AF054B74
:105A10001B687B607B6818460C37BD465DF8047BCD
:105A2000704700BFA41B002080B582B000AF01F01A
:105A300093F900237B60044B1B683B603B6818466E
:105A40000837BD4680BD00BFA41B002080B586B0CE
:105A500000AF00237B614F4B1B68002B40F0908010
:105A60004D4B1B6801333B614B4A3B6913603B69FB
:105A7000002B21D1494B1B681B68002B0BD04FF02A
:105A8000500383F31188BFF36F8FBFF34F8F3B60D9
:105A900000BF00BFFDE7414B1B68FB60404B1B682C
:105AA0003E4A13603E4AFB6813603E4B1B6801335D
:105AB0003C4A136000F0E2FA3B4B1B683A699A4299
:105AC00049D3364B1B681B68002B04D1364B4FF073
:105AD000FF321A603FE0314B1B68DB68DB68BB605C
